{
  "contractName": "newToken",
  "abi": [
    {
      "inputs": [
        {
          "internalType": "string",
          "name": "_name",
          "type": "string"
        },
        {
          "internalType": "string",
          "name": "_symbol",
          "type": "string"
        },
        {
          "internalType": "uint256",
          "name": "_totalSupply",
          "type": "uint256"
        },
        {
          "internalType": "uint8",
          "name": "_decimals",
          "type": "uint8"
        }
      ],
      "stateMutability": "nonpayable",
      "type": "constructor"
    },
    {
      "anonymous": false,
      "inputs": [
        {
          "indexed": true,
          "internalType": "address",
          "name": "owner",
          "type": "address"
        },
        {
          "indexed": true,
          "internalType": "address",
          "name": "spender",
          "type": "address"
        },
        {
          "indexed": false,
          "internalType": "uint256",
          "name": "value",
          "type": "uint256"
        }
      ],
      "name": "Approval",
      "type": "event"
    },
    {
      "anonymous": false,
      "inputs": [
        {
          "indexed": true,
          "internalType": "address",
          "name": "from",
          "type": "address"
        },
        {
          "indexed": true,
          "internalType": "address",
          "name": "to",
          "type": "address"
        },
        {
          "indexed": false,
          "internalType": "uint256",
          "name": "value",
          "type": "uint256"
        }
      ],
      "name": "Transfer",
      "type": "event"
    },
    {
      "inputs": [
        {
          "internalType": "address",
          "name": "",
          "type": "address"
        }
      ],
      "name": "balances",
      "outputs": [
        {
          "internalType": "uint256",
          "name": "",
          "type": "uint256"
        }
      ],
      "stateMutability": "view",
      "type": "function",
      "constant": true
    },
    {
      "inputs": [],
      "name": "decimals",
      "outputs": [
        {
          "internalType": "uint8",
          "name": "",
          "type": "uint8"
        }
      ],
      "stateMutability": "view",
      "type": "function",
      "constant": true
    },
    {
      "inputs": [],
      "name": "name",
      "outputs": [
        {
          "internalType": "string",
          "name": "",
          "type": "string"
        }
      ],
      "stateMutability": "view",
      "type": "function",
      "constant": true
    },
    {
      "inputs": [],
      "name": "symbol",
      "outputs": [
        {
          "internalType": "string",
          "name": "",
          "type": "string"
        }
      ],
      "stateMutability": "view",
      "type": "function",
      "constant": true
    },
    {
      "inputs": [],
      "name": "totSupply",
      "outputs": [
        {
          "internalType": "uint256",
          "name": "",
          "type": "uint256"
        }
      ],
      "stateMutability": "view",
      "type": "function",
      "constant": true
    },
    {
      "inputs": [],
      "name": "totalSupply",
      "outputs": [
        {
          "internalType": "uint256",
          "name": "",
          "type": "uint256"
        }
      ],
      "stateMutability": "view",
      "type": "function",
      "constant": true
    },
    {
      "inputs": [
        {
          "internalType": "address",
          "name": "_owner",
          "type": "address"
        }
      ],
      "name": "balanceOf",
      "outputs": [
        {
          "internalType": "uint256",
          "name": "",
          "type": "uint256"
        }
      ],
      "stateMutability": "view",
      "type": "function",
      "constant": true
    },
    {
      "inputs": [
        {
          "internalType": "address",
          "name": "_to",
          "type": "address"
        },
        {
          "internalType": "uint256",
          "name": "_value",
          "type": "uint256"
        }
      ],
      "name": "transfer",
      "outputs": [
        {
          "internalType": "bool",
          "name": "success",
          "type": "bool"
        }
      ],
      "stateMutability": "nonpayable",
      "type": "function"
    },
    {
      "inputs": [
        {
          "internalType": "address",
          "name": "_spender",
          "type": "address"
        },
        {
          "internalType": "uint256",
          "name": "_amount",
          "type": "uint256"
        }
      ],
      "name": "approve",
      "outputs": [
        {
          "internalType": "bool",
          "name": "success",
          "type": "bool"
        }
      ],
      "stateMutability": "nonpayable",
      "type": "function"
    },
    {
      "inputs": [
        {
          "internalType": "address",
          "name": "_owner",
          "type": "address"
        },
        {
          "internalType": "address",
          "name": "_spender",
          "type": "address"
        }
      ],
      "name": "allowance",
      "outputs": [
        {
          "internalType": "uint256",
          "name": "",
          "type": "uint256"
        }
      ],
      "stateMutability": "view",
      "type": "function",
      "constant": true
    },
    {
      "inputs": [
        {
          "internalType": "address",
          "name": "_from",
          "type": "address"
        },
        {
          "internalType": "address",
          "name": "_to",
          "type": "address"
        },
        {
          "internalType": "uint256",
          "name": "_amount",
          "type": "uint256"
        }
      ],
      "name": "transferFrom",
      "outputs": [
        {
          "internalType": "bool",
          "name": "success",
          "type": "bool"
        }
      ],
      "stateMutability": "nonpayable",
      "type": "function"
    }
  ],
  "bytecode": "0x60806040523480156200001157600080fd5b50604051620014ef380380620014ef8339818101604052810190620000379190620003b3565b83600090805190602001906200004f929190620000ed565b50826001908051906020019062000068929190620000ed565b5080600360006101000a81548160ff021916908360ff16021790555081600460003373ffffffffffffffffffffffffffffffffffffffff1673ffffffffffffffffffffffffffffffffffffffff1681526020019081526020016000206000828254620000d5919062000492565b92505081905550816002819055505050505062000554565b828054620000fb906200051e565b90600052602060002090601f0160209004810192826200011f57600085556200016b565b82601f106200013a57805160ff19168380011785556200016b565b828001600101855582156200016b579182015b828111156200016a5782518255916020019190600101906200014d565b5b5090506200017a91906200017e565b5090565b5b80821115620001995760008160009055506001016200017f565b5090565b6000604051905090565b600080fd5b600080fd5b600080fd5b600080fd5b6000601f19601f8301169050919050565b7f4e487b7100000000000000000000000000000000000000000000000000000000600052604160045260246000fd5b6200020682620001bb565b810181811067ffffffffffffffff82111715620002285762000227620001cc565b5b80604052505050565b60006200023d6200019d565b90506200024b8282620001fb565b919050565b600067ffffffffffffffff8211156200026e576200026d620001cc565b5b6200027982620001bb565b9050602081019050919050565b60005b83811015620002a657808201518184015260208101905062000289565b83811115620002b6576000848401525b50505050565b6000620002d3620002cd8462000250565b62000231565b905082815260208101848484011115620002f257620002f1620001b6565b5b620002ff84828562000286565b509392505050565b600082601f8301126200031f576200031e620001b1565b5b815162000331848260208601620002bc565b91505092915050565b6000819050919050565b6200034f816200033a565b81146200035b57600080fd5b50565b6000815190506200036f8162000344565b92915050565b600060ff82169050919050565b6200038d8162000375565b81146200039957600080fd5b50565b600081519050620003ad8162000382565b92915050565b60008060008060808587031215620003d057620003cf620001a7565b5b600085015167ffffffffffffffff811115620003f157620003f0620001ac565b5b620003ff8782880162000307565b945050602085015167ffffffffffffffff811115620004235762000422620001ac565b5b620004318782880162000307565b935050604062000444878288016200035e565b925050606062000457878288016200039c565b91505092959194509250565b7f4e487b7100000000000000000000000000000000000000000000000000000000600052601160045260246000fd5b60006200049f826200033a565b9150620004ac836200033a565b9250827fffffffffffffffffffffffffffffffffffffffffffffffffffffffffffffffff03821115620004e457620004e362000463565b5b828201905092915050565b7f4e487b7100000000000000000000000000000000000000000000000000000000600052602260045260246000fd5b600060028204905060018216806200053757607f821691505b602082108114156200054e576200054d620004ef565b5b50919050565b610f8b80620005646000396000f3fe608060405234801561001057600080fd5b50600436106100a95760003560e01c8063313ce56711610071578063313ce5671461017a57806370a082311461019857806381fbf0a5146101c857806395d89b41146101e6578063a9059cbb14610204578063dd62ed3e14610234576100a9565b806306fdde03146100ae578063095ea7b3146100cc57806318160ddd146100fc57806323b872dd1461011a57806327e235e31461014a575b600080fd5b6100b6610264565b6040516100c39190610aa5565b60405180910390f35b6100e660048036038101906100e19190610b60565b6102f2565b6040516100f39190610bbb565b60405180910390f35b610104610465565b6040516101119190610be5565b60405180910390f35b610134600480360381019061012f9190610c00565b61046f565b6040516101419190610bbb565b60405180910390f35b610164600480360381019061015f9190610c53565b6106df565b6040516101719190610be5565b60405180910390f35b6101826106f7565b60405161018f9190610c9c565b60405180910390f35b6101b260048036038101906101ad9190610c53565b61070a565b6040516101bf9190610be5565b60405180910390f35b6101d0610753565b6040516101dd9190610be5565b60405180910390f35b6101ee610759565b6040516101fb9190610aa5565b60405180910390f35b61021e60048036038101906102199190610b60565b6107e7565b60405161022b9190610bbb565b60405180910390f35b61024e60048036038101906102499190610cb7565b610985565b60405161025b9190610be5565b60405180910390f35b6000805461027190610d26565b80601f016020809104026020016040519081016040528092919081815260200182805461029d90610d26565b80156102ea5780601f106102bf576101008083540402835291602001916102ea565b820191906000526020600020905b8154815290600101906020018083116102cd57829003601f168201915b505050505081565b600081600460003373ffffffffffffffffffffffffffffffffffffffff1673ffffffffffffffffffffffffffffffffffffffff1681526020019081526020016000205411610375576040517f08c379a000000000000000000000000000000000000000000000000000000000815260040161036c90610da4565b60405180910390fd5b81600560003373ffffffffffffffffffffffffffffffffffffffff1673ffffffffffffffffffffffffffffffffffffffff16815260200190815260200160002060008573ffffffffffffffffffffffffffffffffffffffff1673ffffffffffffffffffffffffffffffffffffffff168152602001908152602001600020819055508273ffffffffffffffffffffffffffffffffffffffff163373ffffffffffffffffffffffffffffffffffffffff167f8c5be1e5ebec7d5bd14f71427d1e84f3dd0314c0f7b2291e5b200ac8c7c3b925846040516104539190610be5565b60405180910390a36001905092915050565b6000600254905090565b600081600560008673ffffffffffffffffffffffffffffffffffffffff1673ffffffffffffffffffffffffffffffffffffffff16815260200190815260200160002060003373ffffffffffffffffffffffffffffffffffffffff1673ffffffffffffffffffffffffffffffffffffffff168152602001908152602001600020541015610530576040517f08c379a000000000000000000000000000000000000000000000000000000000815260040161052790610e10565b60405180910390fd5b81600460008673ffffffffffffffffffffffffffffffffffffffff1673ffffffffffffffffffffffffffffffffffffffff168152602001908152602001600020600082825461057f9190610e5f565b9250508190555081600460008573ffffffffffffffffffffffffffffffffffffffff1673ffffffffffffffffffffffffffffffffffffffff16815260200190815260200160002060008282546105d59190610e93565b9250508190555081600560008673ffffffffffffffffffffffffffffffffffffffff1673ffffffffffffffffffffffffffffffffffffffff16815260200190815260200160002060003373ffffffffffffffffffffffffffffffffffffffff1673ffffffffffffffffffffffffffffffffffffffff16815260200190815260200160002060008282546106689190610e5f565b925050819055508273ffffffffffffffffffffffffffffffffffffffff168473ffffffffffffffffffffffffffffffffffffffff167fddf252ad1be2c89b69c2b068fc378daa952ba7f163c4a11628f55a4df523b3ef846040516106cc9190610be5565b60405180910390a3600190509392505050565b60046020528060005260406000206000915090505481565b600360009054906101000a900460ff1681565b6000600460008373ffffffffffffffffffffffffffffffffffffffff1673ffffffffffffffffffffffffffffffffffffffff168152602001908152602001600020549050919050565b60025481565b6001805461076690610d26565b80601f016020809104026020016040519081016040528092919081815260200182805461079290610d26565b80156107df5780601f106107b4576101008083540402835291602001916107df565b820191906000526020600020905b8154815290600101906020018083116107c257829003601f168201915b505050505081565b600081600460003373ffffffffffffffffffffffffffffffffffffffff1673ffffffffffffffffffffffffffffffffffffffff168152602001908152602001600020541161086a576040517f08c379a000000000000000000000000000000000000000000000000000000000815260040161086190610f35565b60405180910390fd5b81600460003373ffffffffffffffffffffffffffffffffffffffff1673ffffffffffffffffffffffffffffffffffffffff16815260200190815260200160002060008282546108b99190610e5f565b9250508190555081600460008573ffffffffffffffffffffffffffffffffffffffff1673ffffffffffffffffffffffffffffffffffffffff168152602001908152602001600020600082825461090f9190610e93565b925050819055508273ffffffffffffffffffffffffffffffffffffffff163373ffffffffffffffffffffffffffffffffffffffff167fddf252ad1be2c89b69c2b068fc378daa952ba7f163c4a11628f55a4df523b3ef846040516109739190610be5565b60405180910390a36001905092915050565b6000600560008473ffffffffffffffffffffffffffffffffffffffff1673ffffffffffffffffffffffffffffffffffffffff16815260200190815260200160002060008373ffffffffffffffffffffffffffffffffffffffff1673ffffffffffffffffffffffffffffffffffffffff16815260200190815260200160002054905092915050565b600081519050919050565b600082825260208201905092915050565b60005b83811015610a46578082015181840152602081019050610a2b565b83811115610a55576000848401525b50505050565b6000601f19601f8301169050919050565b6000610a7782610a0c565b610a818185610a17565b9350610a91818560208601610a28565b610a9a81610a5b565b840191505092915050565b60006020820190508181036000830152610abf8184610a6c565b905092915050565b600080fd5b600073ffffffffffffffffffffffffffffffffffffffff82169050919050565b6000610af782610acc565b9050919050565b610b0781610aec565b8114610b1257600080fd5b50565b600081359050610b2481610afe565b92915050565b6000819050919050565b610b3d81610b2a565b8114610b4857600080fd5b50565b600081359050610b5a81610b34565b92915050565b60008060408385031215610b7757610b76610ac7565b5b6000610b8585828601610b15565b9250506020610b9685828601610b4b565b9150509250929050565b60008115159050919050565b610bb581610ba0565b82525050565b6000602082019050610bd06000830184610bac565b92915050565b610bdf81610b2a565b82525050565b6000602082019050610bfa6000830184610bd6565b92915050565b600080600060608486031215610c1957610c18610ac7565b5b6000610c2786828701610b15565b9350506020610c3886828701610b15565b9250506040610c4986828701610b4b565b9150509250925092565b600060208284031215610c6957610c68610ac7565b5b6000610c7784828501610b15565b91505092915050565b600060ff82169050919050565b610c9681610c80565b82525050565b6000602082019050610cb16000830184610c8d565b92915050565b60008060408385031215610cce57610ccd610ac7565b5b6000610cdc85828601610b15565b9250506020610ced85828601610b15565b9150509250929050565b7f4e487b7100000000000000000000000000000000000000000000000000000000600052602260045260246000fd5b60006002820490506001821680610d3e57607f821691505b60208210811415610d5257610d51610cf7565b5b50919050565b7f43616e277420617070726f7665207468697320616d6f756e7400000000000000600082015250565b6000610d8e601983610a17565b9150610d9982610d58565b602082019050919050565b60006020820190508181036000830152610dbd81610d81565b9050919050565b7f596f7520646f6e27742068617665207468697320616c6c6f77616e6365000000600082015250565b6000610dfa601d83610a17565b9150610e0582610dc4565b602082019050919050565b60006020820190508181036000830152610e2981610ded565b9050919050565b7f4e487b7100000000000000000000000000000000000000000000000000000000600052601160045260246000fd5b6000610e6a82610b2a565b9150610e7583610b2a565b925082821015610e8857610e87610e30565b5b828203905092915050565b6000610e9e82610b2a565b9150610ea983610b2a565b9250827fffffffffffffffffffffffffffffffffffffffffffffffffffffffffffffffff03821115610ede57610edd610e30565b5b828201905092915050565b7f4e6f204d6f6e657920696e20596f75722057616c6c6574000000000000000000600082015250565b6000610f1f601783610a17565b9150610f2a82610ee9565b602082019050919050565b60006020820190508181036000830152610f4e81610f12565b905091905056fea2646970667358221220202f0ef71e92115059fd19c82d4678ec40a1b97044e8278b53430fdb9c38188564736f6c634300080a0033",
  "immutableReferences": {},
  "source": "//SPDX-License-Identifier: UNLICENSED\r\n\r\npragma solidity >0.5.0 <0.9.0;\r\nimport \"./Erc20Interface.sol\";\r\n\r\ncontract newToken is IERC20{\r\n\r\n    string public name;\r\n    string public symbol;\r\n    uint256 public totSupply;\r\n    uint8 public decimals;\r\n    mapping(address=>uint256)public balances;\r\n    mapping(address=>mapping(address=>uint256)) private allowed;\r\n\r\n    constructor(string memory _name, string memory _symbol, uint256 _totalSupply, uint8 _decimals){\r\n        name = _name;\r\n        symbol = _symbol;\r\n        decimals = _decimals;\r\n        balances[msg.sender] += _totalSupply;\r\n        totSupply = _totalSupply;\r\n    }\r\n\r\n    function totalSupply()public view override returns(uint256){\r\n        return totSupply;\r\n    }\r\n\r\n    function balanceOf(address _owner)public view override returns(uint256){\r\n        return balances[_owner];\r\n    }\r\n\r\n    function transfer(address _to, uint256 _value)public override returns(bool success){\r\n        require(balances[msg.sender] > _value, \"No Money in Your Wallet\");\r\n        balances[msg.sender] -= _value;\r\n        balances[_to] += _value;\r\n        emit Transfer(msg.sender, _to, _value);\r\n        return true;\r\n    }\r\n\r\n    function approve(address _spender, uint _amount)public override returns(bool success){\r\n        require(balances[msg.sender] > _amount, \"Can't approve this amount\");\r\n        allowed[msg.sender][_spender] = _amount;\r\n        emit Approval(msg.sender, _spender, _amount);\r\n        return true;\r\n    }\r\n\r\n    function allowance(address _owner, address _spender)public override view returns(uint256){\r\n        return allowed[_owner][_spender];\r\n    }\r\n\r\n    function transferFrom(address _from, address _to, uint256 _amount)public override returns(bool success){\r\n        require(allowed[_from][msg.sender] >= _amount, \"You don't have this allowance\");\r\n        balances[_from] -= _amount;\r\n        balances[_to] += _amount;\r\n        allowed[_from][msg.sender] -= _amount;\r\n        emit Transfer(_from, _to, _amount);\r\n        return true;\r\n    }\r\n}",
  "sourcePath": "C:\\Users\\Matteo\\PycharmProjects\\tokenErc20\\contracts\\Erc20.sol",
  "compiler": {
    "name": "solc",
    "version": "0.8.10+commit.fc410830.Emscripten.clang"
  },
  "schemaVersion": "3.4.4",
  "updatedAt": "2021-12-20T14:26:09.283Z",
  "networkType": "ethereum",
  "devdoc": {
    "kind": "dev",
    "methods": {},
    "version": 1
  },
  "userdoc": {
    "kind": "user",
    "methods": {},
    "version": 1
  }
}